:100000001528FF3FFF3F831223088A002208820041
:10001000080003208A110A128000840AA20A031928
:10002000A30AD003031D092808008312A001A1011F
:100030000730990083169F0105148510051183125E
:1000400005148510051105187828C830A007003060
:100050000318013EA1070230DB000430DC00BA3097
:10006000DD00DD0B3128DC0B3128DB0B31280000F3
:100070008030013AD000803021065002031D422812
:100080002008F43C031C5228051C522885184C28D3
:100090008514A001A1015128851C51288510A001BB
:1000A000A101772880302106D0008030033A500229
:1000B000031D5C28E8302002031C772805196428FA
:1000C0000515A001A1016928051D69280511A001D8
:1000D000A1010330DB008A30DC005530DD00DD0B90
:1000E0006F28DC0B6F28DB0B6F2800000000232833
:1000F000A001A10123287B28FF3FFF3FFF3FFF3FD7
:02400E0055312A
:00000001FF
